{
  "contractName": "Calculator",
  "abi": [
    {
      "inputs": [],
      "name": "result",
      "outputs": [
        {
          "internalType": "uint256",
          "name": "",
          "type": "uint256"
        }
      ],
      "stateMutability": "view",
      "type": "function",
      "constant": true
    },
    {
      "inputs": [
        {
          "internalType": "uint256",
          "name": "x",
          "type": "uint256"
        },
        {
          "internalType": "uint256",
          "name": "y",
          "type": "uint256"
        }
      ],
      "name": "add",
      "outputs": [],
      "stateMutability": "nonpayable",
      "type": "function"
    },
    {
      "inputs": [
        {
          "internalType": "uint256",
          "name": "x",
          "type": "uint256"
        },
        {
          "internalType": "uint256",
          "name": "y",
          "type": "uint256"
        }
      ],
      "name": "subtract",
      "outputs": [],
      "stateMutability": "nonpayable",
      "type": "function"
    },
    {
      "inputs": [
        {
          "internalType": "uint256",
          "name": "x",
          "type": "uint256"
        },
        {
          "internalType": "uint256",
          "name": "y",
          "type": "uint256"
        }
      ],
      "name": "multiply",
      "outputs": [],
      "stateMutability": "nonpayable",
      "type": "function"
    },
    {
      "inputs": [
        {
          "internalType": "uint256",
          "name": "x",
          "type": "uint256"
        },
        {
          "internalType": "uint256",
          "name": "y",
          "type": "uint256"
        }
      ],
      "name": "divide",
      "outputs": [],
      "stateMutability": "nonpayable",
      "type": "function"
    }
  ],
  "bytecode": "0x608060405234801561001057600080fd5b5061041c806100206000396000f3fe608060405234801561001057600080fd5b50600436106100575760003560e01c8063165c4a161461005c5780633ef5e445146100785780636537214714610094578063771602f7146100b2578063f88e9fbf146100ce575b600080fd5b610076600480360381019061007191906101c6565b6100ea565b005b610092600480360381019061008d91906101c6565b610100565b005b61009c610116565b6040516100a99190610215565b60405180910390f35b6100cc60048036038101906100c791906101c6565b61011c565b005b6100e860048036038101906100e391906101c6565b610132565b005b80826100f6919061025f565b6000819055505050565b808261010c91906102a1565b6000819055505050565b60005481565b808261012891906102d5565b6000819055505050565b60008103610175576040517f08c379a000000000000000000000000000000000000000000000000000000000815260040161016c90610366565b60405180910390fd5b808261018191906103b5565b6000819055505050565b600080fd5b6000819050919050565b6101a381610190565b81146101ae57600080fd5b50565b6000813590506101c08161019a565b92915050565b600080604083850312156101dd576101dc61018b565b5b60006101eb858286016101b1565b92505060206101fc858286016101b1565b9150509250929050565b61020f81610190565b82525050565b600060208201905061022a6000830184610206565b92915050565b7f4e487b7100000000000000000000000000000000000000000000000000000000600052601160045260246000fd5b600061026a82610190565b915061027583610190565b925082820261028381610190565b9150828204841483151761029a57610299610230565b5b5092915050565b60006102ac82610190565b91506102b783610190565b92508282039050818111156102cf576102ce610230565b5b92915050565b60006102e082610190565b91506102eb83610190565b925082820190508082111561030357610302610230565b5b92915050565b600082825260208201905092915050565b7f43616e6e6f7420646976696465206279207a65726f0000000000000000000000600082015250565b6000610350601583610309565b915061035b8261031a565b602082019050919050565b6000602082019050818103600083015261037f81610343565b9050919050565b7f4e487b7100000000000000000000000000000000000000000000000000000000600052601260045260246000fd5b60006103c082610190565b91506103cb83610190565b9250826103db576103da610386565b5b82820490509291505056fea26469706673582212208562079eaea957aaf7e1b13e0920a7a01e1a3a6cb1eb4e060a029ca3c11b060964736f6c63430008110033",
  "immutableReferences": {},
  "source": "// SPDX-License-Identifier: MIT\n\n\npragma solidity ^0.8.0;\n\ncontract Calculator {\n    \n    uint public result;\n    \n    function add(uint x, uint y) public {\n        result = x + y;\n    }\n    \n    function subtract(uint x, uint y) public {\n        result = x - y;\n    }\n    \n    function multiply(uint x, uint y) public {\n        result = x * y;\n    }\n    \n    function divide(uint x, uint y) public {\n        require(y != 0, \"Cannot divide by zero\");\n        result = x / y;\n    }\n    \n}\n",
  "sourcePath": "/Users/saishmirajkar/Desktop/Test/contracts/Calculator.sol",
  "compiler": {
    "name": "solc",
    "version": "0.8.17+commit.8df45f5f.Emscripten.clang"
  },
  "schemaVersion": "3.4.14",
  "updatedAt": "2023-07-18T15:00:11.153Z",
  "networkType": "ethereum",
  "devdoc": {
    "kind": "dev",
    "methods": {},
    "version": 1
  },
  "userdoc": {
    "kind": "user",
    "methods": {},
    "version": 1
  }
}